{
  "contractName": "sample",
  "abi": [
    {
      "inputs": [],
      "stateMutability": "nonpayable",
      "type": "constructor"
    },
    {
      "inputs": [
        {
          "internalType": "address",
          "name": "",
          "type": "address"
        }
      ],
      "name": "manu_to_ind",
      "outputs": [
        {
          "internalType": "uint256",
          "name": "",
          "type": "uint256"
        }
      ],
      "stateMutability": "view",
      "type": "function",
      "constant": true
    },
    {
      "inputs": [
        {
          "internalType": "uint256",
          "name": "",
          "type": "uint256"
        }
      ],
      "name": "products",
      "outputs": [
        {
          "internalType": "string",
          "name": "name",
          "type": "string"
        },
        {
          "internalType": "uint256",
          "name": "id",
          "type": "uint256"
        },
        {
          "internalType": "address",
          "name": "manufacturer",
          "type": "address"
        }
      ],
      "stateMutability": "view",
      "type": "function",
      "constant": true
    },
    {
      "inputs": [],
      "name": "get",
      "outputs": [
        {
          "internalType": "string",
          "name": "",
          "type": "string"
        }
      ],
      "stateMutability": "view",
      "type": "function",
      "constant": true
    },
    {
      "inputs": [
        {
          "internalType": "string",
          "name": "_x",
          "type": "string"
        }
      ],
      "name": "set",
      "outputs": [],
      "stateMutability": "nonpayable",
      "type": "function"
    },
    {
      "inputs": [
        {
          "internalType": "string",
          "name": "_name",
          "type": "string"
        }
      ],
      "name": "additem",
      "outputs": [],
      "stateMutability": "nonpayable",
      "type": "function"
    },
    {
      "inputs": [
        {
          "internalType": "uint256",
          "name": "ind",
          "type": "uint256"
        }
      ],
      "name": "getproduct",
      "outputs": [
        {
          "internalType": "string",
          "name": "n",
          "type": "string"
        },
        {
          "internalType": "uint256",
          "name": "i",
          "type": "uint256"
        },
        {
          "internalType": "address",
          "name": "a",
          "type": "address"
        }
      ],
      "stateMutability": "view",
      "type": "function",
      "constant": true
    }
  ],
  "bytecode": "0x608060405234801561001057600080fd5b50610c3f806100206000396000f3fe608060405234801561001057600080fd5b50600436106100625760003560e01c806313b1ece5146100675780634ed3885e146100975780636d4ce63c146100b35780637acc0b20146100d1578063e45aeafc14610103578063f008ef181461011f575b600080fd5b610081600480360381019061007c91906105c5565b610151565b60405161008e919061060b565b60405180910390f35b6100b160048036038101906100ac919061076c565b610169565b005b6100bb61017c565b6040516100c89190610834565b60405180910390f35b6100eb60048036038101906100e69190610882565b61020e565b6040516100fa939291906108be565b60405180910390f35b61011d6004803603810190610118919061076c565b6102f0565b005b61013960048036038101906101349190610882565b6103de565b604051610148939291906108be565b60405180910390f35b60036020528060005260406000206000915090505481565b80600090816101789190610b08565b5050565b60606000805461018b9061092b565b80601f01602080910402602001604051908101604052809291908181526020018280546101b79061092b565b80156102045780601f106101d957610100808354040283529160200191610204565b820191906000526020600020905b8154815290600101906020018083116101e757829003601f168201915b5050505050905090565b6002818154811061021e57600080fd5b90600052602060002090600302016000915090508060000180546102419061092b565b80601f016020809104026020016040519081016040528092919081815260200182805461026d9061092b565b80156102ba5780601f1061028f576101008083540402835291602001916102ba565b820191906000526020600020905b81548152906001019060200180831161029d57829003601f168201915b5050505050908060010154908060020160009054906101000a900473ffffffffffffffffffffffffffffffffffffffff16905083565b6102f861051c565b81816000018190525061025881602001818152505033816040019073ffffffffffffffffffffffffffffffffffffffff16908173ffffffffffffffffffffffffffffffffffffffff1681525050600281908060018154018082558091505060019003906000526020600020906003020160009091909190915060008201518160000190816103869190610b08565b506020820151816001015560408201518160020160006101000a81548173ffffffffffffffffffffffffffffffffffffffff021916908373ffffffffffffffffffffffffffffffffffffffff16021790555050505050565b60606000806000600285815481106103f9576103f8610bda565b5b906000526020600020906003020160000180546104159061092b565b80601f01602080910402602001604051908101604052809291908181526020018280546104419061092b565b801561048e5780601f106104635761010080835404028352916020019161048e565b820191906000526020600020905b81548152906001019060200180831161047157829003601f168201915b505050505090506000600286815481106104ab576104aa610bda565b5b90600052602060002090600302016001015490506000600287815481106104d5576104d4610bda565b5b906000526020600020906003020160020160009054906101000a900473ffffffffffffffffffffffffffffffffffffffff1690508282829550955095505050509193909250565b60405180606001604052806060815260200160008152602001600073ffffffffffffffffffffffffffffffffffffffff1681525090565b6000604051905090565b600080fd5b600080fd5b600073ffffffffffffffffffffffffffffffffffffffff82169050919050565b600061059282610567565b9050919050565b6105a281610587565b81146105ad57600080fd5b50565b6000813590506105bf81610599565b92915050565b6000602082840312156105db576105da61055d565b5b60006105e9848285016105b0565b91505092915050565b6000819050919050565b610605816105f2565b82525050565b600060208201905061062060008301846105fc565b92915050565b600080fd5b600080fd5b6000601f19601f8301169050919050565b7f4e487b7100000000000000000000000000000000000000000000000000000000600052604160045260246000fd5b61067982610630565b810181811067ffffffffffffffff8211171561069857610697610641565b5b80604052505050565b60006106ab610553565b90506106b78282610670565b919050565b600067ffffffffffffffff8211156106d7576106d6610641565b5b6106e082610630565b9050602081019050919050565b82818337600083830152505050565b600061070f61070a846106bc565b6106a1565b90508281526020810184848401111561072b5761072a61062b565b5b6107368482856106ed565b509392505050565b600082601f83011261075357610752610626565b5b81356107638482602086016106fc565b91505092915050565b6000602082840312156107825761078161055d565b5b600082013567ffffffffffffffff8111156107a05761079f610562565b5b6107ac8482850161073e565b91505092915050565b600081519050919050565b600082825260208201905092915050565b60005b838110156107ef5780820151818401526020810190506107d4565b60008484015250505050565b6000610806826107b5565b61081081856107c0565b93506108208185602086016107d1565b61082981610630565b840191505092915050565b6000602082019050818103600083015261084e81846107fb565b905092915050565b61085f816105f2565b811461086a57600080fd5b50565b60008135905061087c81610856565b92915050565b6000602082840312156108985761089761055d565b5b60006108a68482850161086d565b91505092915050565b6108b881610587565b82525050565b600060608201905081810360008301526108d881866107fb565b90506108e760208301856105fc565b6108f460408301846108af565b949350505050565b7f4e487b7100000000000000000000000000000000000000000000000000000000600052602260045260246000fd5b6000600282049050600182168061094357607f821691505b602082108103610956576109556108fc565b5b50919050565b60008190508160005260206000209050919050565b60006020601f8301049050919050565b600082821b905092915050565b6000600883026109be7fffffffffffffffffffffffffffffffffffffffffffffffffffffffffffffffff82610981565b6109c88683610981565b95508019841693508086168417925050509392505050565b6000819050919050565b6000610a05610a006109fb846105f2565b6109e0565b6105f2565b9050919050565b6000819050919050565b610a1f836109ea565b610a33610a2b82610a0c565b84845461098e565b825550505050565b600090565b610a48610a3b565b610a53818484610a16565b505050565b5b81811015610a7757610a6c600082610a40565b600181019050610a59565b5050565b601f821115610abc57610a8d8161095c565b610a9684610971565b81016020851015610aa5578190505b610ab9610ab185610971565b830182610a58565b50505b505050565b600082821c905092915050565b6000610adf60001984600802610ac1565b1980831691505092915050565b6000610af88383610ace565b9150826002028217905092915050565b610b11826107b5565b67ffffffffffffffff811115610b2a57610b29610641565b5b610b34825461092b565b610b3f828285610a7b565b600060209050601f831160018114610b725760008415610b60578287015190505b610b6a8582610aec565b865550610bd2565b601f198416610b808661095c565b60005b82811015610ba857848901518255600182019150602085019450602081019050610b83565b86831015610bc55784890151610bc1601f891682610ace565b8355505b6001600288020188555050505b505050505050565b7f4e487b7100000000000000000000000000000000000000000000000000000000600052603260045260246000fdfea26469706673582212202c71d5074dfa2b1dd6d2faae3fbe5d35a40cd8e7e419b3f6036396356c03924664736f6c63430008110033",
  "immutableReferences": {},
  "source": "// SPDX-License-Identifier: MIT\npragma solidity >=0.4.22 <0.9.0;\n\ncontract sample {\n  constructor() public {\n  }\n  string temp;\n  function get() public view returns (string memory) {\n    return temp;\n  }\n\n    function set(string memory _x) public {\n    temp = _x;\n  }\n\n      uint256 number;\n    struct product{\n        string name;\n        // uint price;\n        uint id;\n        address manufacturer;\n    }\n\n    product[] public products;\n    mapping(address => uint) public manu_to_ind;\n\n    function additem(string memory _name) public{\n        product memory P;\n        P.name = _name;\n        P.id = 600;\n        P.manufacturer = msg.sender;\n        products.push(P);\n    }\n\n   function getproduct(uint ind) public view returns(string memory n, uint i, address a){\n        string memory n = products[ind].name;\n        uint i = products[ind].id;\n        address a = products[ind].manufacturer;\n        return (n, i, a);\n    }\n}\n",
  "sourcePath": "C:\\Workspace\\fyproject\\blockchain\\contracts\\sample.sol",
  "compiler": {
    "name": "solc",
    "version": "0.8.17+commit.8df45f5f.Emscripten.clang"
  },
  "schemaVersion": "3.4.11",
  "updatedAt": "2023-02-05T10:54:20.479Z",
  "networkType": "ethereum",
  "devdoc": {
    "kind": "dev",
    "methods": {},
    "version": 1
  },
  "userdoc": {
    "kind": "user",
    "methods": {},
    "version": 1
  }
}