{
  "contractName": "sample",
  "abi": [
    {
      "anonymous": false,
      "inputs": [
        {
          "indexed": false,
          "internalType": "bytes32",
          "name": "id",
          "type": "bytes32"
        }
      ],
      "name": "created",
      "type": "event"
    },
    {
      "inputs": [],
      "name": "ID",
      "outputs": [
        {
          "internalType": "bytes32",
          "name": "",
          "type": "bytes32"
        }
      ],
      "stateMutability": "view",
      "type": "function",
      "constant": true
    },
    {
      "inputs": [
        {
          "internalType": "bytes32",
          "name": "",
          "type": "bytes32"
        }
      ],
      "name": "Products",
      "outputs": [
        {
          "internalType": "string",
          "name": "name",
          "type": "string"
        },
        {
          "internalType": "address",
          "name": "next_addr",
          "type": "address"
        },
        {
          "internalType": "uint256",
          "name": "date",
          "type": "uint256"
        },
        {
          "internalType": "uint256",
          "name": "expiry",
          "type": "uint256"
        },
        {
          "internalType": "uint256",
          "name": "mrp",
          "type": "uint256"
        },
        {
          "internalType": "uint256",
          "name": "packof",
          "type": "uint256"
        }
      ],
      "stateMutability": "view",
      "type": "function",
      "constant": true
    },
    {
      "inputs": [
        {
          "internalType": "string",
          "name": "_name",
          "type": "string"
        },
        {
          "internalType": "address",
          "name": "_addr",
          "type": "address"
        },
        {
          "internalType": "uint256",
          "name": "_expiry",
          "type": "uint256"
        },
        {
          "internalType": "uint256",
          "name": "_mrp",
          "type": "uint256"
        },
        {
          "internalType": "uint256",
          "name": "_packof",
          "type": "uint256"
        }
      ],
      "name": "create",
      "outputs": [
        {
          "internalType": "bytes32",
          "name": "",
          "type": "bytes32"
        }
      ],
      "stateMutability": "nonpayable",
      "type": "function"
    },
    {
      "inputs": [
        {
          "internalType": "bytes32",
          "name": "_id",
          "type": "bytes32"
        }
      ],
      "name": "remove",
      "outputs": [
        {
          "internalType": "bool",
          "name": "",
          "type": "bool"
        }
      ],
      "stateMutability": "nonpayable",
      "type": "function"
    },
    {
      "inputs": [
        {
          "internalType": "bytes32",
          "name": "_id",
          "type": "bytes32"
        },
        {
          "internalType": "address",
          "name": "_addr",
          "type": "address"
        }
      ],
      "name": "add_next",
      "outputs": [
        {
          "internalType": "bool",
          "name": "",
          "type": "bool"
        }
      ],
      "stateMutability": "nonpayable",
      "type": "function"
    },
    {
      "inputs": [
        {
          "internalType": "bytes32",
          "name": "_id",
          "type": "bytes32"
        },
        {
          "internalType": "address",
          "name": "_addr",
          "type": "address"
        }
      ],
      "name": "verify_user",
      "outputs": [
        {
          "internalType": "bool",
          "name": "",
          "type": "bool"
        }
      ],
      "stateMutability": "nonpayable",
      "type": "function"
    },
    {
      "inputs": [
        {
          "internalType": "bytes32",
          "name": "_id",
          "type": "bytes32"
        }
      ],
      "name": "get_details",
      "outputs": [
        {
          "components": [
            {
              "internalType": "string",
              "name": "name",
              "type": "string"
            },
            {
              "internalType": "address",
              "name": "next_addr",
              "type": "address"
            },
            {
              "internalType": "uint256",
              "name": "date",
              "type": "uint256"
            },
            {
              "internalType": "uint256",
              "name": "expiry",
              "type": "uint256"
            },
            {
              "internalType": "uint256",
              "name": "mrp",
              "type": "uint256"
            },
            {
              "internalType": "uint256",
              "name": "packof",
              "type": "uint256"
            }
          ],
          "internalType": "struct sample.Product",
          "name": "",
          "type": "tuple"
        }
      ],
      "stateMutability": "nonpayable",
      "type": "function"
    }
  ],
  "bytecode": "0x608060405234801561001057600080fd5b50611240806100206000396000f3fe608060405234801561001057600080fd5b506004361061007d5760003560e01c8063c46270941161005b578063c462709414610100578063e4769df514610130578063e5b9eeba14610160578063fb6a464a146101905761007d565b806395bc267314610082578063b3cea217146100b2578063bfabf72d146100d0575b600080fd5b61009c600480360381019061009791906108e5565b6101c5565b6040516100a9919061092d565b60405180910390f35b6100ba610298565b6040516100c79190610957565b60405180910390f35b6100ea60048036038101906100e591906109d0565b61029e565b6040516100f7919061092d565b60405180910390f35b61011a600480360381019061011591906108e5565b610368565b6040516101279190610b51565b60405180910390f35b61014a600480360381019061014591906109d0565b610500565b604051610157919061092d565b60405180910390f35b61017a60048036038101906101759190610cd4565b6105b8565b6040516101879190610957565b60405180910390f35b6101aa60048036038101906101a591906108e5565b61070e565b6040516101bc96959493929190610dd3565b60405180910390f35b6000816000600160008381526020019081526020016000206002015403610221576040517f08c379a000000000000000000000000000000000000000000000000000000000815260040161021890610e87565b60405180910390fd5b600160008481526020019081526020016000206000808201600061024591906107f2565b6001820160006101000a81549073ffffffffffffffffffffffffffffffffffffffff0219169055600282016000905560038201600090556004820160009055600582016000905550506001915050919050565b60005481565b60008260006001600083815260200190815260200160002060020154036102fa576040517f08c379a00000000000000000000000000000000000000000000000000000000081526004016102f190610e87565b60405180910390fd5b8273ffffffffffffffffffffffffffffffffffffffff166001600086815260200190815260200160002060010160009054906101000a900473ffffffffffffffffffffffffffffffffffffffff1673ffffffffffffffffffffffffffffffffffffffff161491505092915050565b610370610832565b8160006001600083815260200190815260200160002060020154036103ca576040517f08c379a00000000000000000000000000000000000000000000000000000000081526004016103c190610e87565b60405180910390fd5b600160008481526020019081526020016000206040518060c00160405290816000820180546103f890610ed6565b80601f016020809104026020016040519081016040528092919081815260200182805461042490610ed6565b80156104715780601f1061044657610100808354040283529160200191610471565b820191906000526020600020905b81548152906001019060200180831161045457829003601f168201915b505050505081526020016001820160009054906101000a900473ffffffffffffffffffffffffffffffffffffffff1673ffffffffffffffffffffffffffffffffffffffff1673ffffffffffffffffffffffffffffffffffffffff168152602001600282015481526020016003820154815260200160048201548152602001600582015481525050915050919050565b600082600060016000838152602001908152602001600020600201540361055c576040517f08c379a000000000000000000000000000000000000000000000000000000000815260040161055390610e87565b60405180910390fd5b826001600086815260200190815260200160002060010160006101000a81548173ffffffffffffffffffffffffffffffffffffffff021916908373ffffffffffffffffffffffffffffffffffffffff1602179055505092915050565b6000806040518060c001604052808881526020018773ffffffffffffffffffffffffffffffffffffffff16815260200142815260200186815260200185815260200184815250905060004288604051602001610615929190610f64565b604051602081830303815290604052805190602001209050816001600083815260200190815260200160002060008201518160000190816106569190611138565b5060208201518160010160006101000a81548173ffffffffffffffffffffffffffffffffffffffff021916908373ffffffffffffffffffffffffffffffffffffffff16021790555060408201518160020155606082015181600301556080820151816004015560a082015181600501559050507feaa760c273d138276cc52626465831a3b2ab94e0595145f6b5d10579667723ca816040516106f89190610957565b60405180910390a1809250505095945050505050565b600160205280600052604060002060009150905080600001805461073190610ed6565b80601f016020809104026020016040519081016040528092919081815260200182805461075d90610ed6565b80156107aa5780601f1061077f576101008083540402835291602001916107aa565b820191906000526020600020905b81548152906001019060200180831161078d57829003601f168201915b5050505050908060010160009054906101000a900473ffffffffffffffffffffffffffffffffffffffff16908060020154908060030154908060040154908060050154905086565b5080546107fe90610ed6565b6000825580601f10610810575061082f565b601f01602090049060005260206000209081019061082e919061087e565b5b50565b6040518060c0016040528060608152602001600073ffffffffffffffffffffffffffffffffffffffff168152602001600081526020016000815260200160008152602001600081525090565b5b8082111561089757600081600090555060010161087f565b5090565b6000604051905090565b600080fd5b600080fd5b6000819050919050565b6108c2816108af565b81146108cd57600080fd5b50565b6000813590506108df816108b9565b92915050565b6000602082840312156108fb576108fa6108a5565b5b6000610909848285016108d0565b91505092915050565b60008115159050919050565b61092781610912565b82525050565b6000602082019050610942600083018461091e565b92915050565b610951816108af565b82525050565b600060208201905061096c6000830184610948565b92915050565b600073ffffffffffffffffffffffffffffffffffffffff82169050919050565b600061099d82610972565b9050919050565b6109ad81610992565b81146109b857600080fd5b50565b6000813590506109ca816109a4565b92915050565b600080604083850312156109e7576109e66108a5565b5b60006109f5858286016108d0565b9250506020610a06858286016109bb565b9150509250929050565b600081519050919050565b600082825260208201905092915050565b60005b83811015610a4a578082015181840152602081019050610a2f565b60008484015250505050565b6000601f19601f8301169050919050565b6000610a7282610a10565b610a7c8185610a1b565b9350610a8c818560208601610a2c565b610a9581610a56565b840191505092915050565b610aa981610992565b82525050565b6000819050919050565b610ac281610aaf565b82525050565b600060c0830160008301518482036000860152610ae58282610a67565b9150506020830151610afa6020860182610aa0565b506040830151610b0d6040860182610ab9565b506060830151610b206060860182610ab9565b506080830151610b336080860182610ab9565b5060a0830151610b4660a0860182610ab9565b508091505092915050565b60006020820190508181036000830152610b6b8184610ac8565b905092915050565b600080fd5b600080fd5b7f4e487b7100000000000000000000000000000000000000000000000000000000600052604160045260246000fd5b610bb582610a56565b810181811067ffffffffffffffff82111715610bd457610bd3610b7d565b5b80604052505050565b6000610be761089b565b9050610bf38282610bac565b919050565b600067ffffffffffffffff821115610c1357610c12610b7d565b5b610c1c82610a56565b9050602081019050919050565b82818337600083830152505050565b6000610c4b610c4684610bf8565b610bdd565b905082815260208101848484011115610c6757610c66610b78565b5b610c72848285610c29565b509392505050565b600082601f830112610c8f57610c8e610b73565b5b8135610c9f848260208601610c38565b91505092915050565b610cb181610aaf565b8114610cbc57600080fd5b50565b600081359050610cce81610ca8565b92915050565b600080600080600060a08688031215610cf057610cef6108a5565b5b600086013567ffffffffffffffff811115610d0e57610d0d6108aa565b5b610d1a88828901610c7a565b9550506020610d2b888289016109bb565b9450506040610d3c88828901610cbf565b9350506060610d4d88828901610cbf565b9250506080610d5e88828901610cbf565b9150509295509295909350565b600082825260208201905092915050565b6000610d8782610a10565b610d918185610d6b565b9350610da1818560208601610a2c565b610daa81610a56565b840191505092915050565b610dbe81610992565b82525050565b610dcd81610aaf565b82525050565b600060c0820190508181036000830152610ded8189610d7c565b9050610dfc6020830188610db5565b610e096040830187610dc4565b610e166060830186610dc4565b610e236080830185610dc4565b610e3060a0830184610dc4565b979650505050505050565b7f496e76616c696420496400000000000000000000000000000000000000000000600082015250565b6000610e71600a83610d6b565b9150610e7c82610e3b565b602082019050919050565b60006020820190508181036000830152610ea081610e64565b9050919050565b7f4e487b7100000000000000000000000000000000000000000000000000000000600052602260045260246000fd5b60006002820490506001821680610eee57607f821691505b602082108103610f0157610f00610ea7565b5b50919050565b6000819050919050565b610f22610f1d82610aaf565b610f07565b82525050565b600081905092915050565b6000610f3e82610a10565b610f488185610f28565b9350610f58818560208601610a2c565b80840191505092915050565b6000610f708285610f11565b602082019150610f808284610f33565b91508190509392505050565b60008190508160005260206000209050919050565b60006020601f8301049050919050565b600082821b905092915050565b600060088302610fee7fffffffffffffffffffffffffffffffffffffffffffffffffffffffffffffffff82610fb1565b610ff88683610fb1565b95508019841693508086168417925050509392505050565b6000819050919050565b600061103561103061102b84610aaf565b611010565b610aaf565b9050919050565b6000819050919050565b61104f8361101a565b61106361105b8261103c565b848454610fbe565b825550505050565b600090565b61107861106b565b611083818484611046565b505050565b5b818110156110a75761109c600082611070565b600181019050611089565b5050565b601f8211156110ec576110bd81610f8c565b6110c684610fa1565b810160208510156110d5578190505b6110e96110e185610fa1565b830182611088565b50505b505050565b600082821c905092915050565b600061110f600019846008026110f1565b1980831691505092915050565b600061112883836110fe565b9150826002028217905092915050565b61114182610a10565b67ffffffffffffffff81111561115a57611159610b7d565b5b6111648254610ed6565b61116f8282856110ab565b600060209050601f8311600181146111a25760008415611190578287015190505b61119a858261111c565b865550611202565b601f1984166111b086610f8c565b60005b828110156111d8578489015182556001820191506020850194506020810190506111b3565b868310156111f557848901516111f1601f8916826110fe565b8355505b6001600288020188555050505b50505050505056fea2646970667358221220c1f7258eaffb3fcfdee9f9107bbb993595571f8c0b7c73fb59f31dc9e70f2a1464736f6c63430008110033",
  "immutableReferences": {},
  "source": "pragma solidity >=0.7.0 <0.9.0;\n\ncontract sample {\n\n    struct Product{\n        string name;\n        address next_addr;\n        uint date;\n        uint expiry;\n        uint mrp;\n        uint packof;\n    }\n\n    bytes32 public ID;\n    mapping(bytes32 => Product) public Products;\n\n    modifier exists(bytes32 _id) {\n        require ((Products[_id].date) != 0, \"Invalid Id\"); \n        _;\n    }\n\n    event created(bytes32 id);\n    \n    // creates new product, returns it's hashed value.\n    function create(string memory _name, address _addr, uint _expiry, uint _mrp, uint _packof) public returns(bytes32){\n        Product memory P1 = Product(_name, _addr, block.timestamp, _expiry, _mrp, _packof);\n        bytes32 id = keccak256(abi.encodePacked(block.timestamp, _name));\n        Products[id] = P1;\n        emit created(id);\n        return id;\n    }\n\n    function remove(bytes32 _id) public exists(_id) returns(bool){\n        delete Products[_id];\n        return true;\n    }\n\n    // intermediate user\n    function add_next(bytes32 _id, address _addr) public exists(_id) returns (bool){\n        Products[_id].next_addr = _addr;\n    }\n\n    function verify_user(bytes32 _id, address _addr) public exists(_id) returns(bool){\n        return Products[_id].next_addr == _addr;\n    }\n\n    // view details\n    function get_details(bytes32 _id) public exists(_id) returns(Product memory){\n        return Products[_id];\n    }\n}",
  "sourcePath": "/home/thisisbillall/Documents/Anticounterfeit-system/blockchain/contracts/sample.sol",
  "compiler": {
    "name": "solc",
    "version": "0.8.17+commit.8df45f5f.Emscripten.clang"
  },
  "schemaVersion": "3.4.10",
  "updatedAt": "2023-02-18T07:39:10.458Z",
  "networkType": "ethereum",
  "devdoc": {
    "kind": "dev",
    "methods": {},
    "version": 1
  },
  "userdoc": {
    "kind": "user",
    "methods": {},
    "version": 1
  }
}